{
  "contractName": "Escrow",
  "abi": [
    {
      "inputs": [
        {
          "internalType": "address",
          "name": "_client",
          "type": "address"
        },
        {
          "internalType": "address",
          "name": "_freelancer",
          "type": "address"
        }
      ],
      "stateMutability": "nonpayable",
      "type": "constructor"
    },
    {
      "anonymous": false,
      "inputs": [
        {
          "indexed": false,
          "internalType": "address",
          "name": "client",
          "type": "address"
        },
        {
          "indexed": false,
          "internalType": "address",
          "name": "freelancer",
          "type": "address"
        },
        {
          "indexed": false,
          "internalType": "uint256",
          "name": "amount",
          "type": "uint256"
        }
      ],
      "name": "FundsReleased",
      "type": "event"
    },
    {
      "anonymous": false,
      "inputs": [
        {
          "indexed": false,
          "internalType": "address",
          "name": "freelancer",
          "type": "address"
        }
      ],
      "name": "WorkCompleted",
      "type": "event"
    },
    {
      "inputs": [],
      "name": "amountDeposited",
      "outputs": [
        {
          "internalType": "uint256",
          "name": "",
          "type": "uint256"
        }
      ],
      "stateMutability": "view",
      "type": "function"
    },
    {
      "inputs": [],
      "name": "client",
      "outputs": [
        {
          "internalType": "address",
          "name": "",
          "type": "address"
        }
      ],
      "stateMutability": "view",
      "type": "function"
    },
    {
      "inputs": [],
      "name": "freelancer",
      "outputs": [
        {
          "internalType": "address",
          "name": "",
          "type": "address"
        }
      ],
      "stateMutability": "view",
      "type": "function"
    },
    {
      "inputs": [],
      "name": "workCompleted",
      "outputs": [
        {
          "internalType": "bool",
          "name": "",
          "type": "bool"
        }
      ],
      "stateMutability": "view",
      "type": "function"
    },
    {
      "inputs": [],
      "name": "deposit",
      "outputs": [],
      "stateMutability": "payable",
      "type": "function"
    },
    {
      "inputs": [],
      "name": "completeWork",
      "outputs": [],
      "stateMutability": "nonpayable",
      "type": "function"
    },
    {
      "inputs": [],
      "name": "releaseFunds",
      "outputs": [],
      "stateMutability": "nonpayable",
      "type": "function"
    },
    {
      "inputs": [],
      "name": "refund",
      "outputs": [],
      "stateMutability": "nonpayable",
      "type": "function"
    },
    {
      "inputs": [],
      "name": "getContractBalance",
      "outputs": [
        {
          "internalType": "uint256",
          "name": "",
          "type": "uint256"
        }
      ],
      "stateMutability": "view",
      "type": "function"
    }
  ],
  "bytecode": "0x608060405234801561001057600080fd5b50604051610eb5380380610eb5833981810160405281019061003291906100f2565b816000806101000a81548173ffffffffffffffffffffffffffffffffffffffff021916908373ffffffffffffffffffffffffffffffffffffffff16021790555080600160006101000a81548173ffffffffffffffffffffffffffffffffffffffff021916908373ffffffffffffffffffffffffffffffffffffffff1602179055506000600360006101000a81548160ff02191690831515021790555060006002819055505050610177565b6000815190506100ec81610160565b92915050565b6000806040838503121561010557600080fd5b6000610113858286016100dd565b9250506020610124858286016100dd565b9150509250929050565b600061013982610140565b9050919050565b600073ffffffffffffffffffffffffffffffffffffffff82169050919050565b6101698161012e565b811461017457600080fd5b50565b610d2f806101866000396000f3fe6080604052600436106100865760003560e01c80637fadf50e116100595780637fadf50e1461010f57806396a2eaa61461013a578063a37dda2c14610151578063d0e30db01461017c578063f86ccd411461018657610086565b8063109e94cf1461008b578063590e1ae3146100b657806369d89575146100cd5780636f9fb98a146100e4575b600080fd5b34801561009757600080fd5b506100a06101b1565b6040516100ad9190610a93565b60405180910390f35b3480156100c257600080fd5b506100cb6101d5565b005b3480156100d957600080fd5b506100e2610388565b005b3480156100f057600080fd5b506100f96105b9565b6040516101069190610c00565b60405180910390f35b34801561011b57600080fd5b506101246105c1565b6040516101319190610ae5565b60405180910390f35b34801561014657600080fd5b5061014f6105d4565b005b34801561015d57600080fd5b50610166610728565b6040516101739190610a93565b60405180910390f35b61018461074e565b005b34801561019257600080fd5b5061019b61083a565b6040516101a89190610c00565b60405180910390f35b60008054906101000a900473ffffffffffffffffffffffffffffffffffffffff1681565b600160009054906101000a900473ffffffffffffffffffffffffffffffffffffffff1673ffffffffffffffffffffffffffffffffffffffff163373ffffffffffffffffffffffffffffffffffffffff1614610265576040517f08c379a000000000000000000000000000000000000000000000000000000000815260040161025c90610bc0565b60405180910390fd5b600360009054906101000a900460ff16156102b5576040517f08c379a00000000000000000000000000000000000000000000000000000000081526004016102ac90610b40565b60405180910390fd5b6000600254116102fa576040517f08c379a00000000000000000000000000000000000000000000000000000000081526004016102f190610b80565b60405180910390fd5b60008054906101000a900473ffffffffffffffffffffffffffffffffffffffff1673ffffffffffffffffffffffffffffffffffffffff166108fc6002549081150290604051600060405180830381858888f19350505050158015610362573d6000803e3d6000fd5b5060006002819055506000600360006101000a81548160ff021916908315150217905550565b60008054906101000a900473ffffffffffffffffffffffffffffffffffffffff1673ffffffffffffffffffffffffffffffffffffffff163373ffffffffffffffffffffffffffffffffffffffff1614610416576040517f08c379a000000000000000000000000000000000000000000000000000000000815260040161040d90610b20565b60405180910390fd5b600360009054906101000a900460ff16610465576040517f08c379a000000000000000000000000000000000000000000000000000000000815260040161045c90610b00565b60405180910390fd5b6000600254116104aa576040517f08c379a00000000000000000000000000000000000000000000000000000000081526004016104a190610ba0565b60405180910390fd5b600160009054906101000a900473ffffffffffffffffffffffffffffffffffffffff1673ffffffffffffffffffffffffffffffffffffffff166108fc6002549081150290604051600060405180830381858888f19350505050158015610514573d6000803e3d6000fd5b507feed10c470424824e4a4309075162f10b9989088b23fbed2349698cedd44493fb60008054906101000a900473ffffffffffffffffffffffffffffffffffffffff16600160009054906101000a900473ffffffffffffffffffffffffffffffffffffffff1660025460405161058c93929190610aae565b60405180910390a160006002819055506000600360006101000a81548160ff021916908315150217905550565b600047905090565b600360009054906101000a900460ff1681565b60008054906101000a900473ffffffffffffffffffffffffffffffffffffffff1673ffffffffffffffffffffffffffffffffffffffff163373ffffffffffffffffffffffffffffffffffffffff1614610662576040517f08c379a000000000000000000000000000000000000000000000000000000000815260040161065990610b20565b60405180910390fd5b600360009054906101000a900460ff16156106b2576040517f08c379a00000000000000000000000000000000000000000000000000000000081526004016106a990610be0565b60405180910390fd5b6001600360006101000a81548160ff0219169083151502179055507fa2af28b1f034f25d09a6d01f4a20285d2a025ce5145d9af2c0074eeb7d40ad47600160009054906101000a900473ffffffffffffffffffffffffffffffffffffffff1660405161071e9190610a93565b60405180910390a1565b600160009054906101000a900473ffffffffffffffffffffffffffffffffffffffff1681565b60008054906101000a900473ffffffffffffffffffffffffffffffffffffffff1673ffffffffffffffffffffffffffffffffffffffff163373ffffffffffffffffffffffffffffffffffffffff16146107dc576040517f08c379a00000000000000000000000000000000000000000000000000000000081526004016107d390610b20565b60405180910390fd5b6000341161081f576040517f08c379a000000000000000000000000000000000000000000000000000000000815260040161081690610b60565b60405180910390fd5b34600260008282546108319190610c2c565b92505081905550565b60025481565b61084981610c82565b82525050565b61085881610c94565b82525050565b600061086b601683610c1b565b91507f576f726b206e6f7420636f6d706c6574656420796574000000000000000000006000830152602082019050919050565b60006108ab601983610c1b565b91507f4f6e6c7920636c69656e742063616e2063616c6c2074686973000000000000006000830152602082019050919050565b60006108eb602d83610c1b565b91507f576f726b20697320616c726561647920636f6d706c657465642c206e6f20726560008301527f66756e6420706f737369626c65000000000000000000000000000000000000006020830152604082019050919050565b6000610951601e83610c1b565b91507f4465706f736974206d7573742062652067726561746572207468616e203000006000830152602082019050919050565b6000610991601283610c1b565b91507f4e6f2066756e647320746f20726566756e6400000000000000000000000000006000830152602082019050919050565b60006109d1601383610c1b565b91507f4e6f2066756e647320746f2072656c65617365000000000000000000000000006000830152602082019050919050565b6000610a11601d83610c1b565b91507f4f6e6c7920667265656c616e6365722063616e2063616c6c20746869730000006000830152602082019050919050565b6000610a51601f83610c1b565b91507f576f726b2068617320616c7265616479206265656e20636f6d706c65746564006000830152602082019050919050565b610a8d81610cc0565b82525050565b6000602082019050610aa86000830184610840565b92915050565b6000606082019050610ac36000830186610840565b610ad06020830185610840565b610add6040830184610a84565b949350505050565b6000602082019050610afa600083018461084f565b92915050565b60006020820190508181036000830152610b198161085e565b9050919050565b60006020820190508181036000830152610b398161089e565b9050919050565b60006020820190508181036000830152610b59816108de565b9050919050565b60006020820190508181036000830152610b7981610944565b9050919050565b60006020820190508181036000830152610b9981610984565b9050919050565b60006020820190508181036000830152610bb9816109c4565b9050919050565b60006020820190508181036000830152610bd981610a04565b9050919050565b60006020820190508181036000830152610bf981610a44565b9050919050565b6000602082019050610c156000830184610a84565b92915050565b600082825260208201905092915050565b6000610c3782610cc0565b9150610c4283610cc0565b9250827fffffffffffffffffffffffffffffffffffffffffffffffffffffffffffffffff03821115610c7757610c76610cca565b5b828201905092915050565b6000610c8d82610ca0565b9050919050565b60008115159050919050565b600073ffffffffffffffffffffffffffffffffffffffff82169050919050565b6000819050919050565b7f4e487b7100000000000000000000000000000000000000000000000000000000600052601160045260246000fdfea2646970667358221220e080225de66958adeedf43f9d33089ad5e334309cc4963b77044319f036cdbad64736f6c63430008000033",
  "immutableReferences": {},
  "source": "// SPDX-License-Identifier: MIT\r\npragma solidity ^0.8.0;\r\n\r\ncontract Escrow {\r\n    address public client;\r\n    address public freelancer;\r\n    uint public amountDeposited;\r\n    bool public workCompleted;\r\n\r\n    event WorkCompleted(address freelancer);\r\n    event FundsReleased(address client, address freelancer, uint amount);\r\n\r\n    modifier onlyClient() {\r\n        require(msg.sender == client, \"Only client can call this\");\r\n        _;\r\n    }\r\n\r\n    modifier onlyFreelancer() {\r\n        require(msg.sender == freelancer, \"Only freelancer can call this\");\r\n        _;\r\n    }\r\n\r\n    modifier workNotCompleted() {\r\n        require(!workCompleted, \"Work has already been completed\");\r\n        _;\r\n    }\r\n\r\n    // Accept both client and freelancer addresses from the factory\r\n    constructor(address _client, address _freelancer) {\r\n        client = _client;\r\n        freelancer = _freelancer;\r\n        workCompleted = false;\r\n        amountDeposited = 0;\r\n    }\r\n\r\n    function deposit() external payable onlyClient {\r\n        require(msg.value > 0, \"Deposit must be greater than 0\");\r\n        amountDeposited += msg.value;\r\n    }\r\n\r\n    function completeWork() external onlyClient workNotCompleted {\r\n        workCompleted = true;\r\n        emit WorkCompleted(freelancer);\r\n    }\r\n\r\n    function releaseFunds() external onlyClient {\r\n        require(workCompleted, \"Work not completed yet\");\r\n        require(amountDeposited > 0, \"No funds to release\");\r\n\r\n        payable(freelancer).transfer(amountDeposited);\r\n\r\n        emit FundsReleased(client, freelancer, amountDeposited);\r\n\r\n        amountDeposited = 0;\r\n        workCompleted = false;\r\n    }\r\n\r\n    function refund() external onlyFreelancer {\r\n        require(!workCompleted, \"Work is already completed, no refund possible\");\r\n        require(amountDeposited > 0, \"No funds to refund\");\r\n\r\n        payable(client).transfer(amountDeposited);\r\n\r\n        amountDeposited = 0;\r\n        workCompleted = false;\r\n    }\r\n\r\n    function getContractBalance() public view returns (uint) {\r\n        return address(this).balance;\r\n    }\r\n}\r\n",
  "sourcePath": "C:\\Users\\viswa\\OneDrive\\Desktop\\blockchain\\MyTruffleProject\\contracts\\Escrow.sol",
  "compiler": {
    "name": "solc",
    "version": "0.8.0+commit.c7dfd78e.Emscripten.clang"
  },
  "schemaVersion": "3.4.16",
  "updatedAt": "2025-08-03T16:09:28.798Z",
  "devdoc": {
    "kind": "dev",
    "methods": {},
    "version": 1
  },
  "userdoc": {
    "kind": "user",
    "methods": {},
    "version": 1
  }
}