{
  "contractName": "EscrowFactory",
  "abi": [
    {
      "inputs": [],
      "stateMutability": "nonpayable",
      "type": "constructor"
    },
    {
      "anonymous": false,
      "inputs": [
        {
          "indexed": true,
          "internalType": "address",
          "name": "escrowAddress",
          "type": "address"
        },
        {
          "indexed": true,
          "internalType": "address",
          "name": "client",
          "type": "address"
        },
        {
          "indexed": true,
          "internalType": "address",
          "name": "freelancer",
          "type": "address"
        }
      ],
      "name": "EscrowCreated",
      "type": "event"
    },
    {
      "inputs": [
        {
          "internalType": "address",
          "name": "",
          "type": "address"
        }
      ],
      "name": "escrowToClient",
      "outputs": [
        {
          "internalType": "address",
          "name": "",
          "type": "address"
        }
      ],
      "stateMutability": "view",
      "type": "function",
      "constant": true
    },
    {
      "inputs": [
        {
          "internalType": "address",
          "name": "",
          "type": "address"
        }
      ],
      "name": "escrowToFreelancer",
      "outputs": [
        {
          "internalType": "address",
          "name": "",
          "type": "address"
        }
      ],
      "stateMutability": "view",
      "type": "function",
      "constant": true
    },
    {
      "inputs": [
        {
          "internalType": "uint256",
          "name": "",
          "type": "uint256"
        }
      ],
      "name": "escrows",
      "outputs": [
        {
          "internalType": "contract Escrow",
          "name": "",
          "type": "address"
        }
      ],
      "stateMutability": "view",
      "type": "function",
      "constant": true
    },
    {
      "inputs": [],
      "name": "owner",
      "outputs": [
        {
          "internalType": "address",
          "name": "",
          "type": "address"
        }
      ],
      "stateMutability": "view",
      "type": "function",
      "constant": true
    },
    {
      "inputs": [
        {
          "internalType": "address",
          "name": "_client",
          "type": "address"
        },
        {
          "internalType": "address",
          "name": "_freelancer",
          "type": "address"
        }
      ],
      "name": "createEscrow",
      "outputs": [
        {
          "internalType": "address",
          "name": "",
          "type": "address"
        }
      ],
      "stateMutability": "nonpayable",
      "type": "function"
    },
    {
      "inputs": [],
      "name": "getAllEscrows",
      "outputs": [
        {
          "internalType": "address[]",
          "name": "",
          "type": "address[]"
        }
      ],
      "stateMutability": "view",
      "type": "function",
      "constant": true
    },
    {
      "inputs": [],
      "name": "getEscrowCount",
      "outputs": [
        {
          "internalType": "uint256",
          "name": "",
          "type": "uint256"
        }
      ],
      "stateMutability": "view",
      "type": "function",
      "constant": true
    },
    {
      "inputs": [
        {
          "internalType": "address",
          "name": "escrowAddr",
          "type": "address"
        }
      ],
      "name": "getClient",
      "outputs": [
        {
          "internalType": "address",
          "name": "",
          "type": "address"
        }
      ],
      "stateMutability": "view",
      "type": "function",
      "constant": true
    },
    {
      "inputs": [
        {
          "internalType": "address",
          "name": "escrowAddr",
          "type": "address"
        }
      ],
      "name": "getFreelancer",
      "outputs": [
        {
          "internalType": "address",
          "name": "",
          "type": "address"
        }
      ],
      "stateMutability": "view",
      "type": "function",
      "constant": true
    }
  ],
  "bytecode": "0x608060405234801561001057600080fd5b50336000806101000a81548173ffffffffffffffffffffffffffffffffffffffff021916908373ffffffffffffffffffffffffffffffffffffffff160217905550611989806100606000396000f3fe608060405234801561001057600080fd5b50600436106100935760003560e01c8063834cc6fc11610066578063834cc6fc146101465780638da5cb5b146101765780639a6ac36f14610194578063a07a7460146101b2578063a0e32870146101e257610093565b8063012f52ee1461009857806316b15135146100c857806364df6ab1146100e6578063746a48c814610116575b600080fd5b6100b260048036038101906100ad91906107e8565b610212565b6040516100bf9190610929565b60405180910390f35b6100d0610251565b6040516100dd9190610944565b60405180910390f35b61010060048036038101906100fb9190610783565b61025e565b60405161010d91906108c3565b60405180910390f35b610130600480360381019061012b9190610783565b6102c7565b60405161013d91906108c3565b60405180910390f35b610160600480360381019061015b91906107ac565b6102fa565b60405161016d91906108c3565b60405180910390f35b61017e61050f565b60405161018b91906108c3565b60405180910390f35b61019c610533565b6040516101a99190610907565b60405180910390f35b6101cc60048036038101906101c79190610783565b6106b0565b6040516101d991906108c3565b60405180910390f35b6101fc60048036038101906101f79190610783565b6106e3565b60405161020991906108c3565b60405180910390f35b6001818154811061022257600080fd5b906000526020600020016000915054906101000a900473ffffffffffffffffffffffffffffffffffffffff1681565b6000600180549050905090565b6000600360008373ffffffffffffffffffffffffffffffffffffffff1673ffffffffffffffffffffffffffffffffffffffff16815260200190815260200160002060009054906101000a900473ffffffffffffffffffffffffffffffffffffffff169050919050565b60026020528060005260406000206000915054906101000a900473ffffffffffffffffffffffffffffffffffffffff1681565b600080838360405161030b9061074c565b6103169291906108de565b604051809103906000f080158015610332573d6000803e3d6000fd5b5090506001819080600181540180825580915050600190039060005260206000200160009091909190916101000a81548173ffffffffffffffffffffffffffffffffffffffff021916908373ffffffffffffffffffffffffffffffffffffffff16021790555083600260008373ffffffffffffffffffffffffffffffffffffffff1673ffffffffffffffffffffffffffffffffffffffff16815260200190815260200160002060006101000a81548173ffffffffffffffffffffffffffffffffffffffff021916908373ffffffffffffffffffffffffffffffffffffffff16021790555082600360008373ffffffffffffffffffffffffffffffffffffffff1673ffffffffffffffffffffffffffffffffffffffff16815260200190815260200160002060006101000a81548173ffffffffffffffffffffffffffffffffffffffff021916908373ffffffffffffffffffffffffffffffffffffffff1602179055508273ffffffffffffffffffffffffffffffffffffffff168473ffffffffffffffffffffffffffffffffffffffff168273ffffffffffffffffffffffffffffffffffffffff167f4743c0c2884de4f19f280dbd2cc93bc24491cdf876ed107046fe8194183c09e960405160405180910390a48091505092915050565b60008054906101000a900473ffffffffffffffffffffffffffffffffffffffff1681565b6060600060018054905067ffffffffffffffff81111561057c577f4e487b7100000000000000000000000000000000000000000000000000000000600052604160045260246000fd5b6040519080825280602002602001820160405280156105aa5781602001602082028036833780820191505090505b50905060005b6001805490508110156106a857600181815481106105f7577f4e487b7100000000000000000000000000000000000000000000000000000000600052603260045260246000fd5b9060005260206000200160009054906101000a900473ffffffffffffffffffffffffffffffffffffffff1682828151811061065b577f4e487b7100000000000000000000000000000000000000000000000000000000600052603260045260246000fd5b602002602001019073ffffffffffffffffffffffffffffffffffffffff16908173ffffffffffffffffffffffffffffffffffffffff168152505080806106a0906109f8565b9150506105b0565b508091505090565b60036020528060005260406000206000915054906101000a900473ffffffffffffffffffffffffffffffffffffffff1681565b6000600260008373ffffffffffffffffffffffffffffffffffffffff1673ffffffffffffffffffffffffffffffffffffffff16815260200190815260200160002060009054906101000a900473ffffffffffffffffffffffffffffffffffffffff169050919050565b610eb580610a9f83390190565b60008135905061076881610a70565b92915050565b60008135905061077d81610a87565b92915050565b60006020828403121561079557600080fd5b60006107a384828501610759565b91505092915050565b600080604083850312156107bf57600080fd5b60006107cd85828601610759565b92505060206107de85828601610759565b9150509250929050565b6000602082840312156107fa57600080fd5b60006108088482850161076e565b91505092915050565b600061081d8383610829565b60208301905092915050565b61083281610998565b82525050565b61084181610998565b82525050565b60006108528261096f565b61085c8185610987565b93506108678361095f565b8060005b8381101561089857815161087f8882610811565b975061088a8361097a565b92505060018101905061086b565b5085935050505092915050565b6108ae816109d4565b82525050565b6108bd816109ca565b82525050565b60006020820190506108d86000830184610838565b92915050565b60006040820190506108f36000830185610838565b6109006020830184610838565b9392505050565b600060208201905081810360008301526109218184610847565b905092915050565b600060208201905061093e60008301846108a5565b92915050565b600060208201905061095960008301846108b4565b92915050565b6000819050602082019050919050565b600081519050919050565b6000602082019050919050565b600082825260208201905092915050565b60006109a3826109aa565b9050919050565b600073ffffffffffffffffffffffffffffffffffffffff82169050919050565b6000819050919050565b60006109df826109e6565b9050919050565b60006109f1826109aa565b9050919050565b6000610a03826109ca565b91507fffffffffffffffffffffffffffffffffffffffffffffffffffffffffffffffff821415610a3657610a35610a41565b5b600182019050919050565b7f4e487b7100000000000000000000000000000000000000000000000000000000600052601160045260246000fd5b610a7981610998565b8114610a8457600080fd5b50565b610a90816109ca565b8114610a9b57600080fd5b5056fe608060405234801561001057600080fd5b50604051610eb5380380610eb5833981810160405281019061003291906100f2565b816000806101000a81548173ffffffffffffffffffffffffffffffffffffffff021916908373ffffffffffffffffffffffffffffffffffffffff16021790555080600160006101000a81548173ffffffffffffffffffffffffffffffffffffffff021916908373ffffffffffffffffffffffffffffffffffffffff1602179055506000600360006101000a81548160ff02191690831515021790555060006002819055505050610177565b6000815190506100ec81610160565b92915050565b6000806040838503121561010557600080fd5b6000610113858286016100dd565b9250506020610124858286016100dd565b9150509250929050565b600061013982610140565b9050919050565b600073ffffffffffffffffffffffffffffffffffffffff82169050919050565b6101698161012e565b811461017457600080fd5b50565b610d2f806101866000396000f3fe6080604052600436106100865760003560e01c80637fadf50e116100595780637fadf50e1461010f57806396a2eaa61461013a578063a37dda2c14610151578063d0e30db01461017c578063f86ccd411461018657610086565b8063109e94cf1461008b578063590e1ae3146100b657806369d89575146100cd5780636f9fb98a146100e4575b600080fd5b34801561009757600080fd5b506100a06101b1565b6040516100ad9190610a93565b60405180910390f35b3480156100c257600080fd5b506100cb6101d5565b005b3480156100d957600080fd5b506100e2610388565b005b3480156100f057600080fd5b506100f96105b9565b6040516101069190610c00565b60405180910390f35b34801561011b57600080fd5b506101246105c1565b6040516101319190610ae5565b60405180910390f35b34801561014657600080fd5b5061014f6105d4565b005b34801561015d57600080fd5b50610166610728565b6040516101739190610a93565b60405180910390f35b61018461074e565b005b34801561019257600080fd5b5061019b61083a565b6040516101a89190610c00565b60405180910390f35b60008054906101000a900473ffffffffffffffffffffffffffffffffffffffff1681565b600160009054906101000a900473ffffffffffffffffffffffffffffffffffffffff1673ffffffffffffffffffffffffffffffffffffffff163373ffffffffffffffffffffffffffffffffffffffff1614610265576040517f08c379a000000000000000000000000000000000000000000000000000000000815260040161025c90610bc0565b60405180910390fd5b600360009054906101000a900460ff16156102b5576040517f08c379a00000000000000000000000000000000000000000000000000000000081526004016102ac90610b40565b60405180910390fd5b6000600254116102fa576040517f08c379a00000000000000000000000000000000000000000000000000000000081526004016102f190610b80565b60405180910390fd5b60008054906101000a900473ffffffffffffffffffffffffffffffffffffffff1673ffffffffffffffffffffffffffffffffffffffff166108fc6002549081150290604051600060405180830381858888f19350505050158015610362573d6000803e3d6000fd5b5060006002819055506000600360006101000a81548160ff021916908315150217905550565b60008054906101000a900473ffffffffffffffffffffffffffffffffffffffff1673ffffffffffffffffffffffffffffffffffffffff163373ffffffffffffffffffffffffffffffffffffffff1614610416576040517f08c379a000000000000000000000000000000000000000000000000000000000815260040161040d90610b20565b60405180910390fd5b600360009054906101000a900460ff16610465576040517f08c379a000000000000000000000000000000000000000000000000000000000815260040161045c90610b00565b60405180910390fd5b6000600254116104aa576040517f08c379a00000000000000000000000000000000000000000000000000000000081526004016104a190610ba0565b60405180910390fd5b600160009054906101000a900473ffffffffffffffffffffffffffffffffffffffff1673ffffffffffffffffffffffffffffffffffffffff166108fc6002549081150290604051600060405180830381858888f19350505050158015610514573d6000803e3d6000fd5b507feed10c470424824e4a4309075162f10b9989088b23fbed2349698cedd44493fb60008054906101000a900473ffffffffffffffffffffffffffffffffffffffff16600160009054906101000a900473ffffffffffffffffffffffffffffffffffffffff1660025460405161058c93929190610aae565b60405180910390a160006002819055506000600360006101000a81548160ff021916908315150217905550565b600047905090565b600360009054906101000a900460ff1681565b60008054906101000a900473ffffffffffffffffffffffffffffffffffffffff1673ffffffffffffffffffffffffffffffffffffffff163373ffffffffffffffffffffffffffffffffffffffff1614610662576040517f08c379a000000000000000000000000000000000000000000000000000000000815260040161065990610b20565b60405180910390fd5b600360009054906101000a900460ff16156106b2576040517f08c379a00000000000000000000000000000000000000000000000000000000081526004016106a990610be0565b60405180910390fd5b6001600360006101000a81548160ff0219169083151502179055507fa2af28b1f034f25d09a6d01f4a20285d2a025ce5145d9af2c0074eeb7d40ad47600160009054906101000a900473ffffffffffffffffffffffffffffffffffffffff1660405161071e9190610a93565b60405180910390a1565b600160009054906101000a900473ffffffffffffffffffffffffffffffffffffffff1681565b60008054906101000a900473ffffffffffffffffffffffffffffffffffffffff1673ffffffffffffffffffffffffffffffffffffffff163373ffffffffffffffffffffffffffffffffffffffff16146107dc576040517f08c379a00000000000000000000000000000000000000000000000000000000081526004016107d390610b20565b60405180910390fd5b6000341161081f576040517f08c379a000000000000000000000000000000000000000000000000000000000815260040161081690610b60565b60405180910390fd5b34600260008282546108319190610c2c565b92505081905550565b60025481565b61084981610c82565b82525050565b61085881610c94565b82525050565b600061086b601683610c1b565b91507f576f726b206e6f7420636f6d706c6574656420796574000000000000000000006000830152602082019050919050565b60006108ab601983610c1b565b91507f4f6e6c7920636c69656e742063616e2063616c6c2074686973000000000000006000830152602082019050919050565b60006108eb602d83610c1b565b91507f576f726b20697320616c726561647920636f6d706c657465642c206e6f20726560008301527f66756e6420706f737369626c65000000000000000000000000000000000000006020830152604082019050919050565b6000610951601e83610c1b565b91507f4465706f736974206d7573742062652067726561746572207468616e203000006000830152602082019050919050565b6000610991601283610c1b565b91507f4e6f2066756e647320746f20726566756e6400000000000000000000000000006000830152602082019050919050565b60006109d1601383610c1b565b91507f4e6f2066756e647320746f2072656c65617365000000000000000000000000006000830152602082019050919050565b6000610a11601d83610c1b565b91507f4f6e6c7920667265656c616e6365722063616e2063616c6c20746869730000006000830152602082019050919050565b6000610a51601f83610c1b565b91507f576f726b2068617320616c7265616479206265656e20636f6d706c65746564006000830152602082019050919050565b610a8d81610cc0565b82525050565b6000602082019050610aa86000830184610840565b92915050565b6000606082019050610ac36000830186610840565b610ad06020830185610840565b610add6040830184610a84565b949350505050565b6000602082019050610afa600083018461084f565b92915050565b60006020820190508181036000830152610b198161085e565b9050919050565b60006020820190508181036000830152610b398161089e565b9050919050565b60006020820190508181036000830152610b59816108de565b9050919050565b60006020820190508181036000830152610b7981610944565b9050919050565b60006020820190508181036000830152610b9981610984565b9050919050565b60006020820190508181036000830152610bb9816109c4565b9050919050565b60006020820190508181036000830152610bd981610a04565b9050919050565b60006020820190508181036000830152610bf981610a44565b9050919050565b6000602082019050610c156000830184610a84565b92915050565b600082825260208201905092915050565b6000610c3782610cc0565b9150610c4283610cc0565b9250827fffffffffffffffffffffffffffffffffffffffffffffffffffffffffffffffff03821115610c7757610c76610cca565b5b828201905092915050565b6000610c8d82610ca0565b9050919050565b60008115159050919050565b600073ffffffffffffffffffffffffffffffffffffffff82169050919050565b6000819050919050565b7f4e487b7100000000000000000000000000000000000000000000000000000000600052601160045260246000fdfea2646970667358221220e080225de66958adeedf43f9d33089ad5e334309cc4963b77044319f036cdbad64736f6c63430008000033a264697066735822122077771b8f5f25bb617610c6ea0e1df4767595b41aa7306b1c640781a06dab241e64736f6c63430008000033",
  "immutableReferences": {},
  "source": "// SPDX-License-Identifier: MIT\r\npragma solidity ^0.8.0;\r\n\r\nimport \"./Escrow.sol\";\r\n\r\ncontract EscrowFactory {\r\n    address public owner;\r\n    Escrow[] public escrows;\r\n\r\n    mapping(address => address) public escrowToClient;\r\n    mapping(address => address) public escrowToFreelancer;\r\n\r\n    event EscrowCreated(address indexed escrowAddress, address indexed client, address indexed freelancer);\r\n\r\n    constructor() {\r\n        owner = msg.sender;\r\n    }\r\n\r\n    // Pass both client and freelancer as arguments\r\n    function createEscrow(address _client, address _freelancer) external returns (address) {\r\n        Escrow escrow = new Escrow(_client, _freelancer);\r\n        escrows.push(escrow);\r\n        escrowToClient[address(escrow)] = _client;\r\n        escrowToFreelancer[address(escrow)] = _freelancer;\r\n        emit EscrowCreated(address(escrow), _client, _freelancer);\r\n        return address(escrow);\r\n    }\r\n\r\n    function getAllEscrows() external view returns (address[] memory) {\r\n        address[] memory addresses = new address[](escrows.length);\r\n        for (uint i = 0; i < escrows.length; i++) {\r\n            addresses[i] = address(escrows[i]);\r\n        }\r\n        return addresses;\r\n    }\r\n\r\n    function getEscrowCount() external view returns (uint) {\r\n        return escrows.length;\r\n    }\r\n\r\n    function getClient(address escrowAddr) external view returns (address) {\r\n        return escrowToClient[escrowAddr];\r\n    }\r\n\r\n    function getFreelancer(address escrowAddr) external view returns (address) {\r\n        return escrowToFreelancer[escrowAddr];\r\n    }\r\n}\r\n",
  "sourcePath": "C:\\Users\\viswa\\OneDrive\\Desktop\\blockchain\\MyTruffleProject\\contracts\\EscrowFactory.sol",
  "compiler": {
    "name": "solc",
    "version": "0.8.0+commit.c7dfd78e.Emscripten.clang"
  },
  "schemaVersion": "3.4.16",
  "updatedAt": "2025-08-03T16:09:35.993Z",
  "networkType": "ethereum",
  "devdoc": {
    "kind": "dev",
    "methods": {},
    "version": 1
  },
  "userdoc": {
    "kind": "user",
    "methods": {},
    "version": 1
  }
}